:100000000C9461000C947E000C947E000C947E0095
:100010000C947E000C947E000C947E000C947E0068
:100020000C947E000C947E000C947E000C947E0058
:100030000C947E000C947E000C947E000C947E0048
:100040000C94FE000C947E000C947E000C947E00B8
:100050000C947E000C947E000C947E000C947E0028
:100060000C947E000C947E0000000000230026000B
:10007000290000000008000201000003040700003E
:1000800000000000000000000000250028002B00F8
:1000900000000000240027002A00040404040404D3
:1000A0000404020202020202030303030303010227
:1000B00004081020408001020408102001020408F6
:1000C000102011241FBECFEFD8E0DEBFCDBF11E05E
:1000D000A0E0B1E0E4EAF5E002C005900D92A8309E
:1000E000B107D9F721E0A8E0B1E001C01D92AE311F
:1000F000B207E1F70E9448010C94D0020C94000072
:10010000CF93DF9390E0FC01E255FF4F2491865698
:100110009F4FFC0184918823C1F090E0880F991FC4
:10012000FC01E057FF4FC591D491FC01EA57FF4F06
:10013000A591B4919FB7F8943881822F809583233D
:100140008883EC91E22BEC939FBFDF91CF910895D0
:1001500090E0FC01EE58FF4F2491FC01E255FF4F67
:100160003491FC01E656FF4FE491EE23C1F12223C6
:1001700039F02330E9F090F4213001F1223011F10F
:10018000F0E0EE0FFF1FE859FF4FA591B491EC91FD
:10019000E32381E090E029F580E008952730A9F07D
:1001A0002830C9F0243061F7809180008F7D03C032
:1001B000809180008F7780938000E2CF84B58F7725
:1001C00084BDDECF84B58F7DFBCF8091B0008F776B
:1001D0008093B000D5CF8091B0008F7DF9CF80E0C3
:1001E00090E008952FB7F89460911A0170911B0167
:1001F00080911C0190911D012FBF08951F920F92B5
:100200000FB60F9211242F933F938F939F93AF9329
:10021000BF9380911A0190911B01A0911C01B09194
:100220001D013091190123E0230F2D3758F5019658
:10023000A11DB11D2093190180931A0190931B01F8
:10024000A0931C01B0931D0180911501909116019E
:10025000A0911701B09118010196A11DB11D8093C5
:10026000150190931601A0931701B0931801BF9147
:10027000AF919F918F913F912F910F900FBE0F9053
:100280001F90189526E8230F0296A11DB11DD2CF0D
:10029000789484B5826084BD84B5816084BD85B561
:1002A000826085BD85B5816085BD80916E0081606D
:1002B00080936E0010928100809181008260809313
:1002C0008100809181008160809381008091800015
:1002D0008160809380008091B10084608093B10040
:1002E0008091B00081608093B00080917A0084603A
:1002F00080937A0080917A00826080937A00809166
:100300007A00816080937A0080917A00806880937F
:100310007A001092C10084B18F6384B985B1909145
:10032000100121E030E001C0220F9A95EAF7807CAD
:10033000822B85B983E00E94800082E00E948000C9
:1003400086E0682E712C01E010E092E3C92ED12CDA
:10035000E12CF12C28EE822E23E0922EA12CB12C40
:1003600083E00E94A800EC0133243394892B09F424
:10037000312C80910101381661F00E94F2006093E7
:1003800008017093090180930A0190930B01309248
:1003900001010E94F2002091080130910901409171
:1003A0000A0150910B01621B730B840B950B633395
:1003B00071058105910530F180910001381611F128
:1003C0008091040190910501A0910601B09107016F
:1003D00030920001CD2BB1F483339105A105B10515
:1003E00088F0C297A109B10982339105A105B10531
:1003F00008F49CC08093040190930501A09306012A
:10040000B093070182E00E94A800EC0133243394EA
:10041000892B09F4312C80910301381661F00E9478
:10042000F20060930C0170930D0180930E01909384
:100430000F01309203010E94F20020910C013091D3
:100440000D0140910E0150910F01621B730B840B43
:10045000950B633371058105910540F1809102018F
:10046000381621F18091040190910501A0910601B7
:10047000B091070130920201CD2BC1F4883E23E0F8
:100480009207A105B10590F4C296A11DB11D893E48
:1004900023E09207A105B10508F051C08093040143
:1004A00090930501A0930601B09307010E94F2000A
:1004B00020911101309112014091130150911401CA
:1004C0001B012C01221A330A440A550A2091040107
:1004D0003091050140910601509107012216330623
:1004E00044065506D8F06093110170931201809371
:1004F0001301909314018091100190E00196B301D3
:100500000E94A8028093100195B1907C980101C0CF
:10051000220F8A95EAF7892F822B85B980E090E037
:10052000892B09F41DCF0E9400001ACFC09204014C
:10053000D0920501E0920601F092070163CF80920C
:10054000040190920501A0920601B0920701AECF7E
:1005500097FB072E16F4009407D077FD09D00E9470
:10056000BC0207FC05D03EF4909581959F4F0895FD
:10057000709561957F4F0895AA1BBB1B51E107C081
:10058000AA1FBB1FA617B70710F0A61BB70B881F23
:10059000991F5A95A9F780959095BC01CD010895B2
:0405A000F894FFCFFD
:0805A40001010101FA00000051
:00000001FF
