:100000000C9461000C947E000C947E000C947E0095
:100010000C947E000C947E000C947E000C947E0068
:100020000C947E000C947E000C947E000C947E0058
:100030000C947E000C947E000C947E000C947E0048
:100040000C94F8000C947E000C947E000C947E00BE
:100050000C947E000C947E000C947E000C947E0028
:100060000C947E000C947E0000000000230026000B
:10007000290000000008000201000003040700003E
:1000800000000000000000000000250028002B00F8
:1000900000000000240027002A00040404040404D3
:1000A0000404020202020202030303030303010227
:1000B00004081020408001020408102001020408F6
:1000C000102011241FBECFEFD8E0DEBFCDBF11E05E
:1000D000A0E0B1E0ECE7F4E002C005900D92A4309E
:1000E000B107D9F721E0A4E0B1E001C01D92A6312B
:1000F000B207E1F70E9442010C943C020C9400000C
:10010000CF93DF9390E0FC01E255FF4F2491865698
:100110009F4FFC0184918823C1F090E0880F991FC4
:10012000FC01E057FF4FC591D491FC01EA57FF4F06
:10013000A591B4919FB7F8943881822F809583233D
:100140008883EC91E22BEC939FBFDF91CF910895D0
:1001500090E0FC01EE58FF4F2491FC01E255FF4F67
:100160003491FC01E656FF4FE491EE23C1F12223C6
:1001700039F02330E9F090F4213001F1223011F10F
:10018000F0E0EE0FFF1FE859FF4FA591B491EC91FD
:10019000E32381E090E029F580E008952730A9F07D
:1001A0002830C9F0243061F7809180008F7D03C032
:1001B000809180008F7780938000E2CF84B58F7725
:1001C00084BDDECF84B58F7DFBCF8091B0008F776B
:1001D0008093B000D5CF8091B0008F7DF9CF80E0C3
:1001E00090E0089595B1907C8F73982B95B9089500
:1001F0001F920F920FB60F9211242F933F938F935C
:100200009F93AF93BF938091120190911301A0919E
:100210001401B09115013091110123E0230F2D3706
:1002200058F50196A11DB11D209311018093120173
:1002300090931301A0931401B093150180910D01C7
:1002400090910E01A0910F01B09110010196A11D96
:10025000B11D80930D0190930E01A0930F01B093F7
:100260001001BF91AF919F918F913F912F910F906E
:100270000FBE0F901F90189526E8230F0296A11D20
:10028000B11DD2CF789484B5826084BD84B581607D
:1002900084BD85B5826085BD85B5816085BD809151
:1002A0006E00816080936E001092810080918100C9
:1002B00082608093810080918100816080938100C1
:1002C000809180008160809380008091B100846083
:1002D0008093B1008091B00081608093B0008091E4
:1002E0007A00846080937A0080917A0082608093A3
:1002F0007A0080917A00816080937A0080917A0000
:10030000806880937A001092C10084B18F6384B9B1
:10031000809108010E94F20082E00E94800083E048
:100320000E948000C0E0D0E082E00E94A8009C0112
:1003300091E02115310509F490E0809101019817B1
:10034000A9F08FB7F8944091120150911301609178
:100350001401709115018FBF409304015093050162
:100360006093060170930701909301018FB7F89491
:100370004091120150911301609114017091150187
:100380008FBFC0900401D0900501E0900601F0906D
:1003900007014C195D096E097F0943335105610559
:1003A000710598F080910001981779F09093000101
:1003B000232B59F4809108018F3318F48F5F8093B9
:1003C0000801809108010E94F20083E00E94A800C9
:1003D0009C0191E02115310509F490E08091030121
:1003E0009817A9F08FB7F89440911201509113011A
:1003F00060911401709115018FBF409309015093D2
:100400000A0160930B0170930C01909303018FB765
:10041000F894409112015091130160911401709170
:1004200015018FBFC0900901D0900A01E0900B0127
:10043000F0900C014C195D096E097F094333510599
:100440006105710598F080910201981779F09093F9
:100450000201232B59F480910801882319F081505F
:1004600080930801809108010E94F200209709F40E
:0C0470005BCF0E94000058CFF894FFCF33
:04047C000101010178
:00000001FF
