:020000040000FA
:100000000C94DD000C9405010C9405010C94050181
:100010000C9405010C9405010C9405010C94050148
:100020000C9405010C9405010C9405010C94050138
:100030000C9405010C9405010C9405010C94050128
:100040000C9476030C9405010C94E6030C94C00305
:100050000C9405010C9405010C9405010C94050108
:100060000C9405010C94050168202D207072696EB6
:10007000742068656C700064202D2064756D70209C
:100080006D6561737572656D656E747320616E6404
:10009000207374617469737469637300436F6D6D69
:1000A000616E64733A0000000000250028002B00F8
:1000B00000000000240027002A004C61622032204A
:1000C0002F2056617269616E7420322072656164FE
:1000D000792E0000000000230026002900040404FB
:1000E00004040404040202020202020303030303E1
:1000F00003010204081020408001020408102001BE
:10010000020408102000000008000201000003049F
:100110000700000000000000003A20004D656173F8
:100120007572656D656E742023002D2D2D2D2D2D7E
:100130002D2D2D2D2D2D2D2D2D2D2D2D2D2D2D2DEF
:100140002D2D2D2D2D2D2D003A20002D2D2D2D2D39
:100150002D2D2D2D2D2D2D2D2D2D2D2D2D2D2D2DCF
:100160002D2D2D2D2D2D2D2D0042756666657220AD
:10017000697320656D7074792E00537464446576DC
:100180003A20004D65616E3A200053746F726564C9
:100190002076616C7565733A20002D2D2D2D2D2054
:1001A0004D6561737572656D656E74732064756DF0
:1001B00070202D2D2D2D2D00CC0611241FBECFEF2C
:1001C000D8E0DEBFCDBF11E0A0E0B1E0E4ECF3E1A8
:1001D00002C005900D92A432B107D9F721E0A4E244
:1001E000B1E001C01D92A03FB207E1F710E0CDEDF4
:1001F000D0E004C02197FE010E94DA09CC3DD1076E
:10020000C9F70E9418040C94E0090C940000AF9206
:10021000BF92CF92DF92EF92FF920F931F93CF93F3
:10022000DF936C017B018B01040F151FEB015E0155
:10023000AE18BF08C017D10759F06991D601ED91EA
:10024000FC910190F081E02DC6010995892B79F789
:10025000C501DF91CF911F910F91FF90EF90DF903B
:10026000CF90BF90AF900895FC01538D448D252F02
:1002700030E0842F90E0821B930B541710F0CF9640
:10028000089501970895FC01918D828D981761F072
:10029000A28DAE0FBF2FB11D5D968C91928D9F5F89
:1002A0009F73928F90E008958FEF9FEF0895FC0168
:1002B000918D828D981731F0828DE80FF11D858D1B
:1002C00090E008958FEF9FEF0895FC01918D228DAE
:1002D000892F90E0805C9F4F821B91098F73992733
:1002E000089583E591E00E94650121E0892B09F4DE
:1002F00020E0822F089580E090E0892B29F00E9471
:10030000710181110C9400000895FC01A48DA80FC7
:10031000B92FB11DA35ABF4F2C91848D90E0019647
:100320008F739927848FA689B7892C93A089B18967
:100330008C91837080648C93938D848D981306C008
:100340000288F389E02D80818F7D80830895EF926C
:10035000FF920F931F93CF93DF93EC0181E0888F7F
:100360009B8D8C8D98131AC0E889F989808185FF4F
:1003700015C09FB7F894EE89FF896083E889F989F1
:1003800080818370806480839FBF81E090E0DF91F3
:10039000CF911F910F91FF90EF900895F62E0B8D46
:1003A00010E00F5F1F4F0F731127E02E8C8D8E1101
:1003B0000CC00FB607FCFACFE889F989808185FF68
:1003C000F5CFCE010E948501F1CFEB8DEC0FFD2F13
:1003D000F11DE35AFF4FF0829FB7F8940B8FEA8923
:1003E000FB8980818062CFCF0F931F93CF93DF93E0
:1003F0008C01D0E0C0E0F801EC0FFD1F6491662392
:1004000041F083E591E00E94A701892B11F021962C
:10041000F2CFCE01DF91CF911F910F910895CF932D
:10042000DF93EC01888D8823B9F0AA89BB89E8891C
:10043000F9898C9185FD03C0808186FD0DC00FB6C2
:1004400007FCF7CF8C9185FFF2CF808185FFEDCF40
:10045000CE010E948501E9CFDF91CF910895FC0183
:1004600001900020E9F73197AF01481B590BBC01FF
:1004700083E591E00C9407018F929F92AF92BF9217
:100480000F931F93CF93DF93CDB7DEB7A1970FB62E
:10049000F894DEBF0FBECDBF19A2423008F44AE087
:1004A0008E010F5D1F4F842E912CB12CA12CA50124
:1004B00094010E94A409E62FB901CA01EA30F4F4BC
:1004C000E05DD801EE938D01232B242B252B79F7AA
:1004D00090E080E0109719F0CD010E942F02A196C4
:1004E0000FB6F894DEBF0FBECDBFDF91CF911F9145
:1004F0000F91BF90AF909F908F900895E95CE1CFEE
:10050000CF93DF930E94F401EC0184E191E00E941B
:100510002F028C0F9D1FDF91CF9108958CE990E001
:100520000E94800287E790E00E94800288E690E0C7
:100530000C9480024F925F926F927F928F929F9263
:10054000AF92BF92CF92DF92EF92FF920F931F93E1
:10055000CF936B017C01742EAC019B010E94760944
:10056000882399F087E191E0CF911F910F91FF903F
:10057000EF90DF90CF90BF90AF909F908F907F9043
:100580006F905F904F900C942F0246015701E894B2
:10059000B7F82FEF3FEF4FE75FE7C501B4010E94C7
:1005A000760981110DC02FEF3FEF4FE75FE7C501DF
:1005B000B4010E94660718161CF48BE191E0D4CFB9
:1005C0002FEF3FEF4FE75FE4C701B6010E94BE087F
:1005D00018161CF48FE191E0C7CF2FEF3FEF4FE7E4
:1005E0005FECC701B6010E94660787FDF3CF20E0EC
:1005F00030E0A901C701B6010E94660710E000E0E3
:1006000087FF0AC06DE283E591E00E94A7018C019B
:10061000F7FAF094F7F8F094C0E060E070E080E062
:100620009FE37C1641F020E030E040E251E40E947C
:100630006B07CF5FF6CFA70196010E94FA062B0148
:100640003C010E94DD074B015C014AE00E943C0234
:100650007C01E00EF11ECC23C1F1C501B4010E9462
:100660000C089B01AC01C301B2010E94F9064B01C9
:100670005C016EE283E591E00E94A701E80EF91E9D
:10068000C15018F120E030E040E251E4C501B4016E
:100690000E94C3082B013C010E94DD074B01B12CD5
:1006A000A12C4AE0C501B4010E943C02E80EF91EEB
:1006B000C501B4010E940C089B01AC01C301B20149
:1006C0000E94F9064B015C01DBCFC701CF911F915E
:1006D0000F91FF90EF90DF90CF90BF90AF909F90E1
:1006E0008F907F906F905F904F9008951F920F9220
:1006F0000FB60F9211242F933F938F939F93AF9335
:10070000BF9380914F0190915001A0915101B09100
:10071000520130914E0123E0230F2D3758F50196F9
:10072000A11DB11D20934E0180934F019093500164
:10073000A0935101B093520180914A0190914B01D5
:10074000A0914C01B0914D010196A11DB11D809366
:100750004A0190934B01A0934C01B0934D01BF917E
:10076000AF919F918F913F912F910F900FBE0F905E
:100770001F90189526E8230F0296A11DB11DD2CF18
:100780001F920F920FB60F9211242F933F934F9306
:100790005F936F937F938F939F93AF93BF93EF93E9
:1007A000FF9383E591E00E948501FF91EF91BF9156
:1007B000AF919F918F917F916F915F914F913F91F9
:1007C0002F910F900FBE0F901F9018951F920F92B0
:1007D0000FB60F9211242F938F939F93EF93FF9354
:1007E000E0916301F09164018081E0916901F091F1
:1007F0006A0182FD1BC0908180916C018F5F8F73B5
:1008000020916D01821741F0E0916C01F0E0ED5A0A
:10081000FE4F958F80936C01FF91EF919F918F9187
:100820002F910F900FBE0F901F9018958081F4CFDD
:10083000CF93DF9300D000D000D01F92CDB7DEB7AA
:10084000789484B5826084BD84B5816084BD85B5AB
:10085000826085BD85B5816085BD80916E008160B7
:1008600080936E001092810080918100826080935D
:10087000810080918100816080938100809180005F
:100880008160809380008091B10084608093B1008A
:100890008091B00081608093B00080917A00846084
:1008A00080937A0080917A00826080937A008091B0
:1008B0007A00816080937A0080917A0080688093CA
:1008C0007A001092C100E3EFF0E02491EFEDF0E048
:1008D00084918823D9F090E0880F991FFC01E0559E
:1008E000FF4FA591B491FC01EA55FF4F45915491FA
:1008F0005A8349839FB7F8943C91822F8095832334
:100900008C93DA018C91282B2C939FBFE09163018B
:10091000F091640182E08083E0915F01F0916001D9
:100920001082E0916101F09162018FEC808310925E
:100930006B01E0916701F091680186E08083E091AE
:100940006501F0916601808180618083E09165019D
:10095000F0916601808188608083E0916501F0916B
:100960006601808180688083E0916501F091660175
:1009700080818F7D80838AEB90E00E9480020E94BC
:100980008E02E7E0F1E08491E3EFF0E09491EFED87
:10099000F0E02491222309F42FC1882359F08330F9
:1009A00009F413C108F006C1813009F414C1823082
:1009B00009F415C1E22FF0E0EE0FFF1FED52FF4FDB
:1009C000A591B4918C91982331E020E009F430E0B6
:1009D000832F922F282F2170309101012317A9F026
:1009E0003FB7F89440914F015091500160915101EF
:1009F000709152013FBF40932801509329016093A9
:100A00002A0170932B01209301013FB7F894409184
:100A10004F015091500160915101709152013FBFBF
:100A2000C0902801D0902901E0902A01F0902B017C
:100A30004C195D096E097F09433351056105710544
:100A400008F406C130910001231709F401C1209375
:100A50000001892B09F0FCC0F0E4F0937C00809148
:100A60007A00806480937A0080917A0086FDFCCFC2
:100A7000209078003090790080912C0190E0FC016A
:100A8000EE0FFF1FE35DFE4F3182208201966AE088
:100A900070E00E94900980932C01809149018A3076
:100AA00018F48F5F80934901809124019091250172
:100AB000A0912601B09127019C01AD012F5F3F4F0E
:100AC0004F4F5F4F29833A834B835C8320932401EC
:100AD000309325014093260150932701B09049019E
:100AE000BB2009F48CC04DE251E05E834D838A0146
:100AF000C12CD12C76011F82D8016D917D918D0181
:100B000090E080E00E940C089B01AC01C701B60197
:100B10000E94FA066B017C01BF81BF5FBF83BB12DD
:100B2000EBCF6B2F70E090E080E00E940E084B014D
:100B30005C01AC019B01C701B6010E946B072B0150
:100B40003C014092450150924601609247017092EB
:100B50004801C12CD12C760110E0ED81FE8161911C
:100B60007191FE83ED8390E080E00E940C08A30168
:100B700092010E94F9069B01AC010E94C3089B01EF
:100B8000AC01C701B6010E94FA066B017C011F5F30
:100B9000FF81F113E2CFA50194010E946B070E942F
:100BA0003609609341017093420180934301909311
:100BB000440135C08730B1F08830D1F0843009F07D
:100BC000F9CE809180008F7D03C0809180008F7767
:100BD00080938000EFCE84B58F7784BDEBCE84B553
:100BE0008F7DFBCF8091B0008F778093B000E2CEF5
:100BF0008091B0008F7DF9CF90E080E0EBCE109235
:100C0000450110924601109247011092480110923E
:100C100041011092420110924301109244018CE173
:100C200091E00E94F4014AE069817A818B819C8184
:100C30000E943C0289E191E00E94F401B10190E040
:100C400080E04AE00E943C0284E191E00E942F0291
:100C500083E591E00E946501181619060CF08FC01B
:100C600083E591E00E9443018F7D843409F081C0C7
:100C70008AE991E00E9480028AE891E00E94F401F2
:100C80006091490170E090E080E04AE00E943C02FF
:100C900084E191E00E942F0283E891E00E94F40138
:100CA0006091450170914601809147019091480102
:100CB00042E00E949A0284E191E00E942F028AE7BA
:100CC00091E00E94F4016091410170914201809194
:100CD00043019091440142E00E949A0284E191E034
:100CE0000E942F0280914901811109C089E691E09B
:100CF0000E9480028BE491E00E948002A9CFE090E4
:100D00002C018A3008F4E12C1982F12C80914901E0
:100D10002981281758F5022F10E0B8016F5F7F4F27
:100D2000072E000C880B990B4AE00E943C0288E4D5
:100D300091E00E94F401C701800F911F6AE070E00A
:100D40000E949009FC01EE0FFF1FE35DFE4F6081E2
:100D5000718190E080E04AE00E943C0284E191E0F1
:100D60000E942F0239813F5F3983D0CF8AE291E020
:100D7000C3CF883409F06CCF0E948E0269CF40E067
:100D800050E0452B09F4FDCD0E947101882309F440
:100D9000F8CD0E940000F5CDE3E5F1E01382128268
:100DA00088EE93E0A0E0B0E084839583A683B783C8
:100DB00086E091E09183808385EC90E0958784873D
:100DC00084EC90E09787868780EC90E0918B808B15
:100DD00081EC90E0938B828B82EC90E0958B848BFE
:100DE00086EC90E0978B868B118E128E138E148E6C
:100DF00008955058BB27AA270E9411070C94840815
:100E00000E94760838F00E947D0820F039F49F3F58
:100E100019F426F40C9473080EF4E095E7FB0C9497
:100E20006D08E92F0E94950858F3BA1762077307F7
:100E30008407950720F079F4A6F50C94B7080EF412
:100E4000E0950B2EBA2FA02D0B01B90190010C01DA
:100E5000CA01A0011124FF27591B99F0593F50F4F2
:100E6000503E68F11A16F040A22F232F342F44274A
:100E7000585FF3CF469537952795A795F040539542
:100E8000C9F77EF41F16BA0B620B730B840BBAF012
:100E90009150A1F0FF0FBB1F661F771F881FC2F77D
:100EA0000EC0BA0F621F731F841F48F48795779591
:100EB0006795B795F7959E3F08F0B0CF9395880F4B
:100EC00008F09927EE0F9795879508950E94490895
:100ED00008F481E008950E947F070C9484080E9422
:100EE0007D0858F00E94760840F029F45F3F29F011
:100EF0000C946D0851110C94B8080C9473080E945E
:100F0000950868F39923B1F3552391F3951B550B7D
:100F1000BB27AA2762177307840738F09F5F5F4FCC
:100F2000220F331F441FAA1FA9F335D00E2E3AF00B
:100F3000E0E832D091505040E695001CCAF72BD023
:100F4000FE2F29D0660F771F881FBB1F2617370774
:100F50004807AB07B0E809F0BB0B802DBF01FF27A6
:100F600093585F4F3AF09E3F510578F00C946D080E
:100F70000C94B8085F3FE4F3983ED4F386957795D8
:100F80006795B795F7959F5FC9F7880F911D96955F
:100F9000879597F90895E1E0660F771F881FBB1FBB
:100FA000621773078407BA0720F0621B730B840B68
:100FB000BA0BEE1F88F7E09508950E949D0888F00F
:100FC0009F5798F0B92F9927B751B0F0E1F0660F0D
:100FD000771F881F991F1AF0BA95C9F714C0B1304E
:100FE00091F00E94B708B1E008950C94B708672FFC
:100FF000782F8827B85F39F0B93FCCF3869577957D
:101000006795B395D9F73EF4909580957095619565
:101010007F4F8F4F9F4F0895E89409C097FB3EF490
:1010200090958095709561957F4F8F4F9F4F992335
:10103000A9F0F92F96E9BB279395F69587957795B3
:101040006795B795F111F8CFFAF4BB0F11F460FF73
:101050001BC06F5F7F4F8F4F9F4F16C0882311F0CB
:1010600096E911C0772321F09EE8872F762F05C0DF
:10107000662371F096E8862F70E060E02AF09A957A
:10108000660F771F881FDAF7880F9695879597F96F
:101090000895990F0008550FAA0BE0E8FEEF161609
:1010A0001706E807F907C0F012161306E407F5075C
:1010B00098F0621B730B840B950B39F40A2661F0D0
:1010C000232B242B252B21F408950A2609F4A14073
:1010D000A6958FEF811D811D089597F99F6780E880
:1010E00070E060E008959FEF80EC089500240A947A
:1010F0001616170618060906089500240A941216F3
:101100001306140605060895092E0394000C11F425
:10111000882352F0BB0F40F4BF2B11F460FF04C0D2
:101120006F5F7F4F8F4F9F4F089557FD9058440F2B
:10113000551F59F05F3F71F04795880F97FB991F36
:1011400061F09F3F79F087950895121613061406F3
:10115000551FF2CF4695F1DF08C016161706180680
:10116000991FF1CF86957105610508940895E8945B
:10117000BB2766277727CB0197F908950E94490876
:1011800008F48FEF08950E94D6080C9484080E94FA
:10119000760838F00E947D0820F0952311F00C9419
:1011A0006D080C94730811240C94B8080E949508DB
:1011B00070F3959FC1F3950F50E0551F629FF001AA
:1011C000729FBB27F00DB11D639FAA27F00DB11DC3
:1011D000AA1F649F6627B00DA11D661F829F22274C
:1011E000B00DA11D621F739FB00DA11D621F839FD3
:1011F000A00D611D221F749F3327A00D611D231FA9
:10120000849F600D211D822F762F6A2F11249F57F6
:1012100050409AF0F1F088234AF0EE0FFF1FBB1FF9
:10122000661F771F881F91505040A9F79E3F5105B8
:1012300080F00C946D080C94B8085F3FE4F3983E7E
:10124000D4F3869577956795B795F795E7959F5F62
:10125000C1F7FE2B880F911D9695879597F90895F4
:1012600019F416F40C9473080C947B090E949D08E1
:10127000B8F39923C9F3B6F39F57550B87FF0E9424
:1012800089090024A0E640EA900180585695979578
:1012900028F4805C660F771F881F20F02617370719
:1012A000480730F4621B730B840B202931294A2B29
:1012B000A69517940794202531254A2758F7660FDD
:1012C000771F881F20F026173707480730F4620B76
:1012D000730B840B200D311D411DA09581F7B901C1
:1012E000842F9158880F9695879508950E944908F4
:1012F000880B990B08959F3F31F0915020F487950A
:1013000077956795B795880F911D9695879597F96D
:10131000089591505040660F771F881FD2F70895A7
:1013200097FB072E16F4009407D077FD09D00E9492
:10133000C60907FC05D03EF4909581959F4F08950E
:10134000709561957F4F0895A1E21A2EAA1BBB1BD1
:10135000FD010DC0AA1FBB1FEE1FFF1FA217B30781
:10136000E407F50720F0A21BB30BE40BF50B661F97
:10137000771F881F991F1A9469F76095709580955B
:1013800090959B01AC01BD01CF010895AA1BBB1B29
:1013900051E107C0AA1FBB1FA617B70710F0A61B75
:1013A000B70B881F991F5A95A9F780959095BC0196
:1013B000CD010895EE0FFF1F0590F491E02D0994E3
:1013C000F894FFCF010100000000A70107013401DC
:1013D0000F026501430157010D0A006E616E00693D
:0813E0006E66006F76660000E6
:107E0000112484B714BE81FFF0D085E080938100F7
:107E100082E08093C00088E18093C10086E0809377
:107E2000C20080E18093C4008EE0C9D0259A86E02C
:107E300020E33CEF91E0309385002093840096BBD3
:107E4000B09BFECF1D9AA8958150A9F7CC24DD24C4
:107E500088248394B5E0AB2EA1E19A2EF3E0BF2EE7
:107E6000A2D0813461F49FD0082FAFD0023811F036
:107E7000013811F484E001C083E08DD089C08234E0
:107E800011F484E103C0853419F485E0A6D080C0E4
:107E9000853579F488D0E82EFF2485D0082F10E0AE
:107EA000102F00270E291F29000F111F8ED06801E7
:107EB0006FC0863521F484E090D080E0DECF843638
:107EC00009F040C070D06FD0082F6DD080E0C81688
:107ED00080E7D80618F4F601B7BEE895C0E0D1E017
:107EE00062D089930C17E1F7F0E0CF16F0E7DF06D8
:107EF00018F0F601B7BEE89568D007B600FCFDCFD4
:107F0000A601A0E0B1E02C9130E011968C91119780
:107F100090E0982F8827822B932B1296FA010C0160
:107F200087BEE89511244E5F5F4FF1E0A038BF0790
:107F300051F7F601A7BEE89507B600FCFDCF97BE46
:107F4000E89526C08437B1F42ED02DD0F82E2BD052
:107F50003CD0F601EF2C8F010F5F1F4F84911BD097
:107F6000EA94F801C1F70894C11CD11CFA94CF0C13
:107F7000D11C0EC0853739F428D08EE10CD085E9AC
:107F80000AD08FE07ACF813511F488E018D01DD067
:107F900080E101D065CF982F8091C00085FFFCCF94
:107FA0009093C60008958091C00087FFFCCF809118
:107FB000C00084FD01C0A8958091C6000895E0E648
:107FC000F0E098E1908380830895EDDF803219F02E
:107FD00088E0F5DFFFCF84E1DECF1F93182FE3DFCA
:107FE0001150E9F7F2DF1F91089580E0E8DFEE27F6
:047FF000FF270994CA
:027FFE00040479
:00000001FF
