:100000000C945C000C9479000C9479000C947900A9
:100010000C9479000C9479000C9479000C9479007C
:100020000C9479000C9479000C9479000C9479006C
:100030000C9479000C9479000C9479000C9479005C
:100040000C94EC000C9479000C9479000C947900D9
:100050000C9479000C9479000C9479000C9479003C
:100060000C9479000C947900000000002400270013
:100070002A0000000000250028002B0004040404CE
:100080000404040402020202020203030303030342
:10009000010204081020408001020408102001021F
:1000A00004081020000000080002010000030407FB
:1000B000000000000000000011241FBECFEFD8E0B8
:1000C000DEBFCDBF11E0A0E0B1E0E6EEF4E002C09B
:1000D00005900D92A830B107D9F721E0A8E0B1E072
:1000E00001C01D92A431B207E1F70E9436010C94C1
:1000F00071020C94000090E0FC01EC55FF4F24913C
:10010000FC01E057FF4F3491FC01E458FF4FE491AC
:10011000EE23C9F0222339F0233001F1A8F4213075
:1001200019F1223029F1F0E0EE0FFF1FEE58FF4FDA
:10013000A591B4918FB7F894EC91611126C03095D8
:100140003E233C938FBF08952730A9F02830C9F093
:10015000243049F7809180008F7D03C0809180001A
:100160008F7780938000DFCF84B58F7784BDDBCF1E
:1001700084B58F7DFBCF8091B0008F778093B000E6
:10018000D2CF8091B0008F7DF9CF3E2BDACF3FB731
:10019000F8948091100190911101A0911201B091F9
:1001A000130126B5A89B05C02F3F19F00196A11D8C
:1001B000B11D3FBFBA2FA92F982F8827BC01CD01B1
:1001C000620F711D811D911D42E0660F771F881F10
:1001D000991F4A95D1F708951F920F920FB60F926B
:1001E00011242F933F938F939F93AF93BF9380914D
:1001F0000C0190910D01A0910E01B0910F01309171
:100200000B0123E0230F2D3758F50196A11DB11DD9
:1002100020930B0180930C0190930D01A0930E018C
:10022000B0930F018091100190911101A0911201E2
:10023000B09113010196A11DB11D809310019093FF
:100240001101A0931201B0931301BF91AF919F913F
:100250008F913F912F910F900FBE0F901F90189587
:1002600026E8230F0296A11DB11DD2CF789484B544
:10027000826084BD84B5816084BD85B5826085BDA2
:1002800085B5816085BD80916E00816080936E0030
:100290001092810080918100826080938100809122
:1002A00081008160809381008091800081608093D3
:1002B00080008091B10084608093B1008091B00093
:1002C00081608093B00080917A00846080937A008E
:1002D00080917A00826080937A0080917A008160B8
:1002E00080937A0080917A00806880937A001092DF
:1002F000C10008E011E0C0E0D1E08991282F30E092
:10030000F901E057FF4F449124583F4FF9012491E0
:10031000222399F030E0220F331FF901E859FF4FF3
:10032000A591B491F901EE58FF4F259134919FB7F3
:10033000F894EC91E42BEC939FBF60E00E947B006B
:100340000C171D07D1F610E488248A94E3E09E2E52
:10035000A12CB12CC0E0D0E001E010937C00809192
:100360007A00806480937A0080917A0086FDFCCFC9
:10037000209178003091790080910A0181115CC050
:10038000309309012093080100930A01609108014C
:100390007091090190E080E033E0660F771F881FBD
:1003A000991F3A95D1F728E0C22E673FF3E27F0705
:1003B000810591052CF4A50194010E943002C22E02
:1003C00090E0E92E91E0F92ED12CF70181917F0187
:1003D00061E0DC1408F060E00E947B00D394F8E058
:1003E000DF12F3CF0E94C7002B013C0182E3C82E2D
:1003F000D12CE12CF12C0E94C700641975098609E3
:100400009709683E734081059105A8F321E0C21A5F
:10041000D108E108F10888EE480E83E0581E611CFF
:10042000711CC114D104E104F10429F7209709F4E7
:1004300094CF0E94000091CF409108015091090192
:10044000CA01880F991F840F951F820F931F9695DD
:10045000879596958795909309018093080196CF8B
:10046000052E97FB1EF400940E94470257FD07D00B
:100470000E944F0207FC03D04EF40C9447025095A3
:100480004095309521953F4F4F4F5F4F0895909580
:100490008095709561957F4F8F4F9F4F0895A1E292
:1004A0001A2EAA1BBB1BFD010DC0AA1FBB1FEE1FEE
:1004B000FF1FA217B307E407F50720F0A21BB30B39
:1004C000E40BF50B661F771F881F991F1A9469F7B5
:1004D00060957095809590959B01AC01BD01CF0111
:0604E0000895F894FFCF1F
:0804E600060708090A0B0C0DC2
:00000001FF
