:020000040000FA
:100000000C9410010C9438010C9438010C943801B4
:100010000C9438010C9438010C9438010C9438017C
:100020000C9438010C9438010C9438010C9438016C
:100030000C9438010C9438010C9438010C9438015C
:100040000C94D8020C9438010C9448030C942203AD
:100050000C9438010C9438010C9438010C9438013C
:100060000C9438010C943801000000002500280091
:100070002B0000000000240027002A005072657346
:10008000732074686520627574746F6E206F6E20C3
:10009000443220746F207072696E74204352432082
:1000A000776974686F757420726573657474696EAE
:1000B000672074686520616363756D756C61746F2A
:1000C000722E0053657269616C204D6F6E69746F9A
:1000D000722073657474696E673A204E6F206C6984
:1000E0006E6520656E64696E6700554152542073D9
:1000F000706565643A203936303000506F6C796E27
:100100006F6D69616C3A20307830372028785E381E
:10011000202B20785E32202B2078202B20312900C4
:100120004C61622033202F204352432D382055410B
:10013000525420736572766572202F206163637557
:100140006D756C617465206D6F6465006E6F6E2DEA
:100150007072696E7461626C6500292C2043524391
:100160003D307800202830780052582000000000F0
:1001700000230026002900040404040404040402EB
:100180000202020202030303030303010204081034
:100190002040800102040810200102040810200001
:1001A0000000080002010000030407000000000036
:1001B0000000002D2D2D2D2D2D2D2D2D2D2D2D2DF6
:1001C0002D2D2D2D2D2D2D2D2D00416363756D753C
:1001D0006C61746F722069732070726573657276DA
:1001E00065642E004352432D38203D203078004274
:1001F0007974657320726563656976656420746FD0
:1002000074616C3A20002D2D2D2D2D20435243205A
:100210007265706F7274202D2D2D2D2D00004605F6
:1002200011241FBECFEFD8E0DEBFCDBF11E0A0E0AC
:10023000B1E0EAE3FBE002C005900D92A831B107FE
:10024000D9F721E0A8E1B1E001C01D92A73CB207B7
:10025000E1F711E0C0E1D1E004C02197FE010E9466
:100260009505CF30D107C9F70E947A030C949B05FE
:100270000C940000AF92BF92CF92DF92EF92FF9268
:100280000F931F93CF93DF936C017B018B01040FBE
:10029000151FEB015E01AE18BF08C017D10759F05A
:1002A0006991D601ED91FC910190F081E02DC6019C
:1002B0000995892B79F7C501DF91CF911F910F9196
:1002C000FF90EF90DF90CF90BF90AF900895FC012A
:1002D000538D448D252F30E0842F90E0821B930BAB
:1002E000541710F0CF96089501970895FC01918D51
:1002F000828D981761F0A28DAE0FBF2FB11D5D9654
:100300008C91928D9F5F9F73928F90E008958FEFF5
:100310009FEF0895FC01918D828D981731F0828DA9
:10032000E80FF11D858D90E008958FEF9FEF089500
:10033000FC01918D228D892F90E0805C9F4F821B64
:1003400091098F73992708958AE291E00E9498019C
:1003500021E0892B09F420E0822F089580E090E0CD
:10036000892B29F00E94A40181110C9400000895AA
:10037000FC01A48DA80FB92FB11DA35ABF4F2C911A
:10038000848D90E001968F739927848FA689B78911
:100390002C93A089B1898C91837080648C93938D08
:1003A000848D981306C00288F389E02D80818F7DAB
:1003B00080830895EF92FF920F931F93CF93DF9363
:1003C000EC0181E0888F9B8D8C8D98131AC0E88991
:1003D000F989808185FF15C09FB7F894EE89FF8960
:1003E0006083E889F98980818370806480839FBFFE
:1003F00081E090E0DF91CF911F910F91FF90EF90FE
:100400000895F62E0B8D10E00F5F1F4F0F7311270D
:10041000E02E8C8D8E110CC00FB607FCFACFE88948
:10042000F989808185FFF5CFCE010E94B801F1CF17
:10043000EB8DEC0FFD2FF11DE35AFF4FF0829FB7BC
:10044000F8940B8FEA89FB8980818062CFCF682F77
:100450008AE291E00C94DA010F931F93CF93DF931C
:100460008C01D0E0C0E0F801EC0FFD1F6491662321
:1004700041F08AE291E00E94DA01892B11F0219685
:10048000F2CFCE01DF91CF911F910F910895CF93BD
:10049000DF93EC01888D8823B9F0AA89BB89E889AC
:1004A000F9898C9185FD03C0808186FD0DC00FB652
:1004B00007FCF7CF8C9185FFF2CF808185FFEDCFD0
:1004C000CE010E94B801E9CFDF91CF9108958F92BC
:1004D0009F92AF92BF920F931F93CF93DF93CDB7AD
:1004E000DEB7A1970FB6F894DEBF0FBECDBF19A23D
:1004F000423008F44AE08E010F5D1F4F842E912C8C
:10050000B12CA12CA50194010E947305E62FB9011D
:10051000CA01EA3044F5E05DD801EE938D01232B4A
:10052000242B252B79F790E080E0109769F0FD01EE
:1005300001900020E9F73197AF014A1B5B0BBD0129
:100540008AE291E00E943A01A1960FB6F894DEBFCC
:100550000FBECDBFDF91CF911F910F91BF90AF9094
:100560009F908F900895E95CD7CF42E050E064E11E
:1005700071E08AE291E00C943A01CF93DF930E94FC
:100580002C02EC010E94B5028C0F9D1FDF91CF91D0
:100590000895CF93C82F803118F480E30E9427027A
:1005A0006C2F70E090E080E040E1CF910C94670206
:1005B0001F920F920FB60F9211242F933F938F9398
:1005C0009F93AF93BF938091260190912701A091B3
:1005D0002801B09129013091250123E0230F2D3707
:1005E00058F50196A11DB11D209325018093260188
:1005F00090932701A0932801B093290180912101B4
:1006000090912201A0912301B09124010196A11D96
:10061000B11D8093210190932201A0932301B093F7
:100620002401BF91AF919F918F913F912F910F9096
:100630000FBE0F901F90189526E8230F0296A11D5C
:10064000B11DD2CF1F920F920FB60F9211242F938C
:100650003F934F935F936F937F938F939F93AF934A
:10066000BF93EF93FF938AE291E00E94B801FF915C
:10067000EF91BF91AF919F918F917F916F915F911A
:100680004F913F912F910F900FBE0F901F90189593
:100690001F920F920FB60F9211242F938F939F9357
:1006A000EF93FF93E0913A01F0913B018081E0915B
:1006B0004001F091410182FD1BC090818091430176
:1006C0008F5F8F7320914401821741F0E0914301C5
:1006D000F0E0E65DFE4F958F80934301FF91EF912F
:1006E0009F918F912F910F900FBE0F901F90189593
:1006F0008081F4CF789484B5826084BD84B58160B4
:1007000084BD85B5826085BD85B5816085BD8091DC
:100710006E00816080936E00109281008091810054
:10072000826080938100809181008160809381004C
:10073000809180008160809380008091B10084600E
:100740008093B1008091B00081608093B00080916F
:100750007A00846080937A0080917A00826080932E
:100760007A0080917A00816080937A0080917A008B
:10077000806880937A001092C100CDE8D1E0FE013C
:10078000249109E711E0F80184918823C9F090E0F1
:10079000880F991FFC01EE58FF4FA591B491FC0101
:1007A000E859FF4F459154919FB7F8943C91822F9F
:1007B000809583238C93FA018081282B20839FBF0F
:1007C000E0913A01F0913B0182E08083E0913601B3
:1007D000F09137011082E0913801F09139018FECEE
:1007E000808310924201E0913E01F0913F0186E04A
:1007F0008083E0913C01F0913D01808180618083A4
:10080000E0913C01F0913D01808188608083E0911E
:100810003C01F0913D01808180688083E0913C0142
:10082000F0913D0180818F7D808380E291E00E9484
:10083000BD028BEF90E00E94BD028AEE90E00E9424
:10084000BD0283EC90E00E94BD028CE790E00E9424
:10085000BD0297E0B92E21EAE22E21E0F22E30E02F
:10086000C32E30E0D32E8AE291E00E949801181640
:1008700019060CF04EC08AE291E00E947601A82E83
:10088000809118018A2598E087FF3CC0880F8B254E
:100890009150D1F7809318018091190190911A011C
:1008A000A0911B01B0911C010196A11DB11D809367
:1008B000190190931A01A0931B01B0931C0189E6C2
:1008C00091E00E942C0280EE8A0D8F35E8F487E2D9
:1008D0000E9427028A2D0E94270287E20E94270297
:1008E00084E691E00E942C028A2D0E94C9028AE5CA
:1008F00091E00E942C02809118010E94C9020E947E
:10090000B502B1CF880FC4CF8CE491E00E942C02D5
:10091000E7CFF7018491FE019491F80124912223FD
:1009200009F4B1C0882359F0833009F495C008F068
:1009300088C0813009F496C0823009F497C0E22F54
:10094000F0E0EE0FFF1FE359FE4FA591B4918C919B
:10095000982331E020E009F430E0832F922F282FF4
:100960002170309101012317A9F03FB7F89440910D
:1009700026015091270160912801709129013FBF04
:1009800040931D0150931E0160931F01709320013D
:10099000209301013FB7F89440912601509127011F
:1009A00060912801709129013FBF40901D01509036
:1009B0001E0160901F0170902001441955096609BD
:1009C0007709433351056105710578F130910001D4
:1009D000231759F120930001892B39F586E092E025
:1009E0000E94BD028FEE91E00E942C0260911901DD
:1009F00070911A0180911B0190911C014AE00E94A4
:100A000067020E94B50284EE91E00E942C02809160
:100A100018010E94C9020E94B5028AEC91E00E946E
:100A2000BD0283EB91E00E94BD02C114D10409F420
:100A30001ACF0E94A401882309F415CF0E94000058
:100A400012CF8730B1F08830D1F0843009F077CF01
:100A5000809180008F7D03C0809180008F7780938C
:100A600080006DCF84B58F7784BD69CF84B58F7DCD
:100A7000FBCF8091B0008F778093B00060CF8091E2
:100A8000B0008F7DF9CF90E080E069CFEAE2F1E03D
:100A90001382128288EE93E0A0E0B0E08483958315
:100AA000A683B78386E091E09183808385EC90E014
:100AB0009587848784EC90E09787868780EC90E028
:100AC000918B808B81EC90E0938B828B82EC90E019
:100AD000958B848B86EC90E0978B868B118E128E93
:100AE000138E148E0895A1E21A2EAA1BBB1BFD01C2
:100AF0000DC0AA1FBB1FEE1FFF1FA217B307E407FD
:100B0000F50720F0A21BB30BE40BF50B661F771F54
:100B1000881F991F1A9469F7609570958095909534
:100B20009B01AC01BD01CF010895EE0FFF1F0590A1
:100B3000F491E02D0994F894FFCF0101000000002A
:100B4000DA013A0167014702980176018A010D0A2C
:020B50000000A3
:107E0000112484B714BE81FFF0D085E080938100F7
:107E100082E08093C00088E18093C10086E0809377
:107E2000C20080E18093C4008EE0C9D0259A86E02C
:107E300020E33CEF91E0309385002093840096BBD3
:107E4000B09BFECF1D9AA8958150A9F7CC24DD24C4
:107E500088248394B5E0AB2EA1E19A2EF3E0BF2EE7
:107E6000A2D0813461F49FD0082FAFD0023811F036
:107E7000013811F484E001C083E08DD089C08234E0
:107E800011F484E103C0853419F485E0A6D080C0E4
:107E9000853579F488D0E82EFF2485D0082F10E0AE
:107EA000102F00270E291F29000F111F8ED06801E7
:107EB0006FC0863521F484E090D080E0DECF843638
:107EC00009F040C070D06FD0082F6DD080E0C81688
:107ED00080E7D80618F4F601B7BEE895C0E0D1E017
:107EE00062D089930C17E1F7F0E0CF16F0E7DF06D8
:107EF00018F0F601B7BEE89568D007B600FCFDCFD4
:107F0000A601A0E0B1E02C9130E011968C91119780
:107F100090E0982F8827822B932B1296FA010C0160
:107F200087BEE89511244E5F5F4FF1E0A038BF0790
:107F300051F7F601A7BEE89507B600FCFDCF97BE46
:107F4000E89526C08437B1F42ED02DD0F82E2BD052
:107F50003CD0F601EF2C8F010F5F1F4F84911BD097
:107F6000EA94F801C1F70894C11CD11CFA94CF0C13
:107F7000D11C0EC0853739F428D08EE10CD085E9AC
:107F80000AD08FE07ACF813511F488E018D01DD067
:107F900080E101D065CF982F8091C00085FFFCCF94
:107FA0009093C60008958091C00087FFFCCF809118
:107FB000C00084FD01C0A8958091C6000895E0E648
:107FC000F0E098E1908380830895EDDF803219F02E
:107FD00088E0F5DFFFCF84E1DECF1F93182FE3DFCA
:107FE0001150E9F7F2DF1F91089580E0E8DFEE27F6
:047FF000FF270994CA
:027FFE00040479
:00000001FF
