:020000040000FA
:100000000C94BF000C94D8020C94B1020C94E7003D
:100010000C94E7000C94E7000C94E7000C94E700C4
:100020000C94E7000C94E7000C94E7000C94E700B4
:100030000C94E7000C94E7000C94E7000C94E700A4
:100040000C9467020C94E7000C9425030C94FF02B7
:100050000C94E7000C94E7000C94E7000C94E70084
:100060000C94E7000C94E700000000002400270037
:100070002A0057616974696E6720666F722065781F
:100080007465726E616C2073746172742073696739
:100090006E616C206F6E2044322E004C6162203203
:1000A000202F2056617269616E7420312072656163
:1000B00064792E0072617741646353616D706C6581
:1000C000732C2072617754656D70657261747572FE
:1000D0006553616D706C6573432C2066696C746543
:1000E00072656454656D7065726174757265536193
:1000F0006D706C6573430043617074757265206642
:10010000696E69736865642E20496E7370656374E7
:100110002061727261797320696E2064656275670F
:100120006765723A0043617074757265207374611B
:10013000727465642E0000000000250028002B006A
:10014000040404040404040402020202020203037D
:100150000303030301020408102040800102040885
:100160001020010204081020000000080002010015
:10017000000304070000000000000000F604112442
:100180001FBECFEFD8E0DEBFCDBF11E0A0E0B1E0F1
:10019000EAE0FEE002C005900D92AA31B107D9F75E
:1001A00022E0AAE1B1E001C01D92A83CB207E1F74C
:1001B00010E0CFEBD0E004C02197FE010E94FD06C5
:1001C000CE3BD107C9F70E9457030C9403070C9448
:1001D0000000E5E7F1E02491E1E6F1E09491EDE43F
:1001E000F1E0E491EE23C9F0222339F0233001F14C
:1001F000A8F4213019F1223029F1F0E0EE0FFF1FB1
:10020000EA5CFE4FA591B4912FB7F894EC9181115F
:1002100026C090959E239C932FBF08952730A9F068
:100220002830C9F0243049F7209180002F7D03C089
:10023000209180002F7720938000DFCF24B52F7787
:1002400024BDDBCF24B52F7DFBCF2091B0002F77CD
:100250002093B000D2CF2091B0002F7DF9CF9E2BFC
:10026000DACF81E08093210208950895AF92BF9282
:10027000CF92DF92EF92FF920F931F93CF93DF9372
:100280006C017B018B01040F151FEB015E01AE18A1
:10029000BF08C017D10759F06991D601ED91FC91C3
:1002A0000190F081E02DC6010995892B79F7C501F0
:1002B000DF91CF911F910F91FF90EF90DF90CF9042
:1002C000BF90AF900895FC01538D448D252F30E0F1
:1002D000842F90E0821B930B541710F0CF96089553
:1002E00001970895FC01918D828D981761F0A28D80
:1002F000AE0FBF2FB11D5D968C91928D9F5F9F7346
:10030000928F90E008958FEF9FEF0895FC01918DFB
:10031000828D981731F0828DE80FF11D858D90E068
:1003200008958FEF9FEF0895FC01918D228D892F05
:1003300090E0805C9F4F821B91098F7399270895ED
:100340008BE292E00E94940121E0892B09F420E0E5
:10035000822F089580E090E0892B29F00E94A0016F
:1003600081110C9400000895FC01A48DA80FB92FF1
:10037000B11DA35ABF4F2C91848D90E001968F73CD
:100380009927848FA689B7892C93A089B1898C91EC
:10039000837080648C93938D848D981306C002883B
:1003A000F389E02D80818F7D80830895EF92FF9205
:1003B0000F931F93CF93DF93EC0181E0888F9B8D88
:1003C0008C8D98131AC0E889F989808185FF15C042
:1003D0009FB7F894EE89FF896083E889F989808165
:1003E0008370806480839FBF81E090E0DF91CF9134
:1003F0001F910F91FF90EF900895F62E0B8D10E056
:100400000F5F1F4F0F731127E02E8C8D8E110CC0C4
:100410000FB607FCFACFE889F989808185FFF5CF0F
:10042000CE010E94B401F1CFEB8DEC0FFD2FF11D39
:10043000E35AFF4FF0829FB7F8940B8FEA89FB894C
:1004400080818062CFCF0F931F93CF93DF938C0176
:10045000D0E0C0E0F801EC0FFD1F6491662341F08D
:100460008BE292E00E94D601892B11F02196F2CF07
:1004700042E050E066E171E08BE292E00E943601DA
:100480008C0F9D1FDF91CF911F910F910895CF93F6
:10049000DF93EC01888D8823B9F0AA89BB89E889AC
:1004A000F9898C9185FD03C0808186FD0DC00FB652
:1004B00007FCF7CF8C9185FFF2CF808185FFEDCFD0
:1004C000CE010E94B401E9CFDF91CF9108951F9230
:1004D0000F920FB60F9211242F933F938F939F93F8
:1004E000AF93BF938091270290912802A091290297
:1004F000B0912A023091260223E0230F2D3758F5C0
:100500000196A11DB11D209326028093270290938E
:100510002802A0932902B0932A028091220290918E
:100520002302A0912402B09125020196A11DB11DC4
:100530008093220290932302A0932402B093250279
:10054000BF91AF919F918F913F912F910F900FBECF
:100550000F901F90189526E8230F0296A11DB11D3C
:10056000D2CF1F920F920FB60F9211242F933F9369
:100570004F935F936F937F938F939F93AF93BF93AB
:10058000EF93FF93E0910201F09103010995FF9130
:10059000EF91BF91AF919F918F917F916F915F91FB
:1005A0004F913F912F910F900FBE0F901F90189574
:1005B0001F920F920FB60F9211242F933F934F93D8
:1005C0005F936F937F938F939F93AF93BF93EF93BB
:1005D000FF93E0910001F09101010995FF91EF91E6
:1005E000BF91AF919F918F917F916F915F914F914B
:1005F0003F912F910F900FBE0F901F9018951F9253
:100600000F920FB60F9211242F933F934F935F9346
:100610006F937F938F939F93AF93BF93EF93FF93CA
:100620008BE292E00E94B401FF91EF91BF91AF91F4
:100630009F918F917F916F915F914F913F912F91FA
:100640000F900FBE0F901F9018951F920F920FB62C
:100650000F9211242F938F939F93EF93FF93E09129
:100660003B02F0913C028081E0914102F091420214
:1006700082FD1BC09081809144028F5F8F73209117
:100680004502821741F0E0914402F0E0E55DFD4F44
:10069000958F80934402FF91EF919F918F912F91BD
:1006A0000F900FBE0F901F9018958081F4CF789413
:1006B00084B5826084BD84B5816084BD85B5826067
:1006C00085BD85B5816085BD80916E008160809318
:1006D0006E00109281008091810082608093810081
:1006E0008091810081608093810080918000816091
:1006F000809380008091B10084608093B1008091EC
:10070000B00081608093B00080917A008460809313
:100710007A0080917A00826080937A0080917A00DA
:10072000816080937A0080917A00806880937A005B
:100730001092C100E6E5F1E02491E2E4F1E0849159
:100740008823C1F090E0880F991FFC01E859FF4F02
:10075000C591D491FC01EA5CFE4FA591B4919FB77D
:10076000F8943881822F809583238883EC91E22B43
:10077000EC939FBFE1E6F1E02491EDE4F1E0849198
:10078000882399F090E0880F991FFC01E859FF4FEA
:10079000A591B491FC01EA5CFE4F859194918FB7CD
:1007A000F894EC91E22BEC938FBF80E00E94E9007B
:1007B00081E391E0909301018093000180916900B1
:1007C0008C7F826080936900E89AE0913B02F0910F
:1007D0003C0282E08083E0913702F091380210827F
:1007E000E0913902F0913A028FEC8083109243023B
:1007F000E0913F02F091400286E08083E0913D026B
:10080000F0913E02808180618083E0913D02F09111
:100810003E02808188608083E0913D02F0913E023B
:10082000808180688083E0913D02F0913E0280816A
:100830008F7D80838BE990E00E94230282E790E025
:100840000E94230240E4D42E50E0E52E50E0F52E25
:10085000D1E080912102882341F180912002811111
:1008600024C0F894109221027894D0932002109220
:100870001B0210921A022FB7F894809127029091D0
:100880002802A0912902B0912A022FBF80931C0256
:1008900090931D02A0931E02B0931F0281E00E945C
:1008A000E90085E291E00E942302809120028823E2
:1008B00009F490C08FB7F894409127025091280214
:1008C0006091290270912A028FBF80911C02909141
:1008D0001D02A0911E02B0911F02481B590B6A0B0A
:1008E0007B0B443651056105710508F473C08C59C2
:1008F0009F4FAF4FBF4F80931C0290931D02A09358
:100900001E02B0931F02D0927C0080917A00806416
:1009100080937A0080917A0086FDFCCF6091780008
:100920007091790090E080E00E94020620E030E0C3
:1009300040EA50E40E94900620E030EC4FE754E497
:100940000E94900520E030E048EC52E40E949006BE
:10095000C0911A020C2F10E0CC23C9F0F801EE0F61
:10096000FF1FEE0FFF1FEA5EFE4F80809180A28086
:10097000B380A50194010E94230520E030E040EA05
:1009800050E40E949005A50194010E942405000FE7
:10099000111F000F111FF801E65EFE4F6083718387
:1009A00082839383CF5FC0931A02C03438F01092D1
:1009B0002002D0931B0280E00E94E90080911B027C
:1009C000882341F087EF90E00E94230284EB90E0BF
:1009D0000E942302E114F10409F43BCF0E94A0011C
:1009E000882309F436CF0E94000033CFEBE2F2E017
:1009F0001382128288EE93E0A0E0B0E084839583B6
:100A0000A683B78388E091E09183808385EC90E0B2
:100A10009587848784EC90E09787868780EC90E0C8
:100A2000918B808B81EC90E0938B828B82EC90E0B9
:100A3000958B848B86EC90E0978B868B118E128E33
:100A4000138E148E08955058BB27AA270E943B0589
:100A50000C9456060E94480638F00E944F0620F07B
:100A600039F49F3F19F426F40C9445060EF4E095F2
:100A7000E7FB0C943F06E92F0E94670658F3BA176C
:100A8000620773078407950720F079F4A6F50C94A4
:100A900089060EF4E0950B2EBA2FA02D0B01B9019B
:100AA00090010C01CA01A0011124FF27591B99F0E4
:100AB000593F50F4503E68F11A16F040A22F232FF0
:100AC000342F4427585FF3CF469537952795A79540
:100AD000F0405395C9F77EF41F16BA0B620B730BE7
:100AE000840BBAF09150A1F0FF0FBB1F661F771F58
:100AF000881FC2F70EC0BA0F621F731F841F48F40D
:100B0000879577956795B795F7959E3F08F0B0CF95
:100B10009395880F08F09927EE0F9795879508957C
:100B20000E94A4050C9456060E944F0658F00E949D
:100B3000480640F029F45F3F29F00C943F0651111C
:100B40000C948A060C9445060E94670668F3992364
:100B5000B1F3552391F3951B550BBB27AA276217B9
:100B60007307840738F09F5F5F4F220F331F441FC6
:100B7000AA1FA9F335D00E2E3AF0E0E832D09150FA
:100B80005040E695001CCAF72BD0FE2F29D0660FE7
:100B9000771F881FBB1F261737074807AB07B0E82A
:100BA00009F0BB0B802DBF01FF2793585F4F3AF030
:100BB0009E3F510578F00C943F060C948A065F3FE7
:100BC000E4F3983ED4F3869577956795B795F795B6
:100BD0009F5FC9F7880F911D9695879597F908959E
:100BE000E1E0660F771F881FBB1F6217730784073A
:100BF000BA0720F0621B730B840BBA0BEE1F88F749
:100C0000E0950895E89409C097FB3EF4909580958F
:100C1000709561957F4F8F4F9F4F9923A9F0F92FC2
:100C200096E9BB279395F695879577956795B79540
:100C3000F111F8CFFAF4BB0F11F460FF1BC06F5F26
:100C40007F4F8F4F9F4F16C0882311F096E911C038
:100C5000772321F09EE8872F762F05C0662371F059
:100C600096E8862F70E060E02AF09A95660F771F6D
:100C7000881FDAF7880F9695879597F9089597F961
:100C80009F6780E870E060E008959FEF80EC089532
:100C900000240A941616170618060906089500245B
:100CA0000A9412161306140605060895092E0394D5
:100CB000000C11F4882352F0BB0F40F4BF2B11F449
:100CC00060FF04C06F5F7F4F8F4F9F4F089557FDA8
:100CD0009058440F551F59F05F3F71F04795880FAA
:100CE00097FB991F61F09F3F79F087950895121641
:100CF00013061406551FF2CF4695F1DF08C01616ED
:100D000017061806991FF1CF86957105610508949D
:100D10000895E894BB2766277727CB0197F90895B4
:100D20000E94A3060C9456060E94480638F00E94C2
:100D30004F0620F0952311F00C943F060C944506C5
:100D400011240C948A060E94670670F3959FC1F3E4
:100D5000950F50E0551F629FF001729FBB27F00D69
:100D6000B11D639FAA27F00DB11DAA1F649F6627BE
:100D7000B00DA11D661F829F2227B00DA11D621F0D
:100D8000739FB00DA11D621F839FA00D611D221FC7
:100D9000749F3327A00D611D231F849F600D211DAB
:100DA000822F762F6A2F11249F5750409AF0F1F02E
:100DB00088234AF0EE0FFF1FBB1F661F771F881F97
:100DC00091505040A9F79E3F510580F00C943F068A
:100DD0000C948A065F3FE4F3983ED4F386957795AA
:100DE0006795B795F795E7959F5FC1F7FE2B880F3D
:100DF000911D9695879597F90895EE0FFF1F059021
:100E0000F491E02D0994F894FFCF350135010000ED
:100E10000000D60136016301470294017201860188
:040E20000D0A0000B7
:107E0000112484B714BE81FFF0D085E080938100F7
:107E100082E08093C00088E18093C10086E0809377
:107E2000C20080E18093C4008EE0C9D0259A86E02C
:107E300020E33CEF91E0309385002093840096BBD3
:107E4000B09BFECF1D9AA8958150A9F7CC24DD24C4
:107E500088248394B5E0AB2EA1E19A2EF3E0BF2EE7
:107E6000A2D0813461F49FD0082FAFD0023811F036
:107E7000013811F484E001C083E08DD089C08234E0
:107E800011F484E103C0853419F485E0A6D080C0E4
:107E9000853579F488D0E82EFF2485D0082F10E0AE
:107EA000102F00270E291F29000F111F8ED06801E7
:107EB0006FC0863521F484E090D080E0DECF843638
:107EC00009F040C070D06FD0082F6DD080E0C81688
:107ED00080E7D80618F4F601B7BEE895C0E0D1E017
:107EE00062D089930C17E1F7F0E0CF16F0E7DF06D8
:107EF00018F0F601B7BEE89568D007B600FCFDCFD4
:107F0000A601A0E0B1E02C9130E011968C91119780
:107F100090E0982F8827822B932B1296FA010C0160
:107F200087BEE89511244E5F5F4FF1E0A038BF0790
:107F300051F7F601A7BEE89507B600FCFDCF97BE46
:107F4000E89526C08437B1F42ED02DD0F82E2BD052
:107F50003CD0F601EF2C8F010F5F1F4F84911BD097
:107F6000EA94F801C1F70894C11CD11CFA94CF0C13
:107F7000D11C0EC0853739F428D08EE10CD085E9AC
:107F80000AD08FE07ACF813511F488E018D01DD067
:107F900080E101D065CF982F8091C00085FFFCCF94
:107FA0009093C60008958091C00087FFFCCF809118
:107FB000C00084FD01C0A8958091C6000895E0E648
:107FC000F0E098E1908380830895EDDF803219F02E
:107FD00088E0F5DFFFCF84E1DECF1F93182FE3DFCA
:107FE0001150E9F7F2DF1F91089580E0E8DFEE27F6
:047FF000FF270994CA
:027FFE00040479
:00000001FF
