:020000040000FA
:100000000C9407010C942F010C942F010C942F01D8
:100010000C942F010C942F010C942F010C942F01A0
:100020000C942F010C942F010C942F010C942F0190
:100030000C942F010C942F010C942F010C942F0180
:100040000C94CF020C942F010C943F030C941903D1
:100050000C942F010C942F010C942F010C942F0160
:100060000C942F010C942F010000000025002800A3
:100070002B0000000000240027002A005072657346
:10008000732074686520627574746F6E206F6E20C3
:10009000443220746F207072696E74204352432082
:1000A000616E642072657365742074686520616395
:1000B00063756D756C61746F722E00536572696142
:1000C0006C204D6F6E69746F722073657474696E05
:1000D000673A204E6F206C696E6520656E64696EAC
:1000E0006700554152542073706565643A20393673
:1000F000303000506F6C796E6F6D69616C3A2030F2
:100100007830372028785E38202B20785E32202BFC
:100110002078202B203129004C61622033202F20B1
:100120004352432D382055415254207365727665F1
:1001300072202F207265736574206D6F6465006E88
:100140006F6E2D7072696E7461626C6500292C206F
:100150004352433D30780020283078005258200028
:100160000000000023002600290004040404040405
:100170000404020202020202030303030303010256
:100180000408102040800102040810200102040825
:100190001020000000080002010000030407000016
:1001A0000000000000002D2D2D2D2D2D2D2D2D2D8D
:1001B0002D2D2D2D2D2D2D2D2D2D2D2D004163631C
:1001C000756D756C61746F722072657365742074DF
:1001D0006F20307830302E004352432D38203D20A0
:1001E000307800427974657320726563656976655D
:1001F000643A20002D2D2D2D2D2043524320726571
:10020000706F7274202D2D2D2D2D000047051124A7
:100210001FBECFEFD8E0DEBFCDBF11E0A0E0B1E060
:10022000ECE3FBE002C005900D92A831B107D9F7CD
:1002300021E0A8E1B1E001C01D92A73CB207E1F7BF
:1002400011E0C7E0D1E004C02197FE010E949605AD
:10025000C630D107C9F70E9471030C949C050C9419
:100260000000AF92BF92CF92DF92EF92FF920F9376
:100270001F93CF93DF936C017B018B01040F151F3C
:10028000EB015E01AE18BF08C017D10759F06991A4
:10029000D601ED91FC910190F081E02DC601099508
:1002A000892B79F7C501DF91CF911F910F91FF90B5
:1002B000EF90DF90CF90BF90AF900895FC01538DE9
:1002C000448D252F30E0842F90E0821B930B541730
:1002D00010F0CF96089501970895FC01918D828DBD
:1002E000981761F0A28DAE0FBF2FB11D5D968C9156
:1002F000928D9F5F9F73928F90E008958FEF9FEF95
:100300000895FC01918D828D981731F0828DE80F50
:10031000F11D858D90E008958FEF9FEF0895FC010A
:10032000918D228D892F90E0805C9F4F821B9109D7
:100330008F73992708958AE291E00E948F0121E04E
:10034000892B09F420E0822F089580E090E0892B2A
:1003500029F00E949B0181110C9400000895FC017A
:10036000A48DA80FB92FB11DA35ABF4F2C91848D16
:1003700090E001968F739927848FA689B7892C9373
:10038000A089B1898C91837080648C93938D848DC6
:10039000981306C00288F389E02D80818F7D8083C9
:1003A0000895EF92FF920F931F93CF93DF93EC0189
:1003B00081E0888F9B8D8C8D98131AC0E889F9890C
:1003C000808185FF15C09FB7F894EE89FF8960830F
:1003D000E889F98980818370806480839FBF81E090
:1003E00090E0DF91CF911F910F91FF90EF900895D2
:1003F000F62E0B8D10E00F5F1F4F0F731127E02EAD
:100400008C8D8E110CC00FB607FCFACFE889F989E4
:10041000808185FFF5CFCE010E94AF01F1CFEB8D3A
:10042000EC0FFD2FF11DE35AFF4FF0829FB7F894B8
:100430000B8FEA89FB8980818062CFCF682F8AE2A7
:1004400091E00C94D1010F931F93CF93DF938C0114
:10045000D0E0C0E0F801EC0FFD1F6491662341F08D
:100460008AE291E00E94D101892B11F02196F2CF0E
:10047000CE01DF91CF911F910F910895CF93DF931C
:10048000EC01888D8823B9F0AA89BB89E889F989AC
:100490008C9185FD03C0808186FD0DC00FB607FCE1
:1004A000F7CF8C9185FFF2CF808185FFEDCFCE0114
:1004B0000E94AF01E9CFDF91CF9108958F929F9273
:1004C000AF92BF920F931F93CF93DF93CDB7DEB759
:1004D000A1970FB6F894DEBF0FBECDBF19A2423070
:1004E00008F44AE08E010F5D1F4F842E912CB12C31
:1004F000A12CA50194010E947405E62FB901CA013F
:10050000EA3044F5E05DD801EE938D01232B242BD6
:10051000252B79F790E080E0109769F0FD010190BC
:100520000020E9F73197AF014A1B5B0BBD018AE25E
:1005300091E00E943101A1960FB6F894DEBF0FBE84
:10054000CDBFDF91CF911F910F91BF90AF909F9042
:100550008F900895E95CD7CF42E050E064E171E00C
:100560008AE291E00C943101CF93DF930E94230241
:10057000EC010E94AC028C0F9D1FDF91CF9108957A
:10058000CF93C82F803118F480E30E941E026C2F95
:1005900070E090E080E040E1CF910C945E021F9209
:1005A0000F920FB60F9211242F933F938F939F9327
:1005B000AF93BF938091260190912701A0912801CC
:1005C000B09129013091250123E0230F2D3758F5F3
:1005D0000196A11DB11D20932501809326019093C2
:1005E0002701A0932801B0932901809121019091C6
:1005F0002201A0912301B09124010196A11DB11DFA
:100600008093210190932201A0932301B0932401B0
:10061000BF91AF919F918F913F912F910F900FBEFE
:100620000F901F90189526E8230F0296A11DB11D6B
:10063000D2CF1F920F920FB60F9211242F933F9398
:100640004F935F936F937F938F939F93AF93BF93DA
:10065000EF93FF938AE291E00E94AF01FF91EF9147
:10066000BF91AF919F918F917F916F915F914F91CA
:100670003F912F910F900FBE0F901F9018951F92D2
:100680000F920FB60F9211242F938F939F93EF9396
:10069000FF93E0913A01F0913B018081E0914001AC
:1006A000F091410182FD1BC09081809143018F5FD9
:1006B0008F7320914401821741F0E0914301F0E0F3
:1006C000E65DFE4F958F80934301FF91EF919F91DF
:1006D0008F912F910F900FBE0F901F9018958081D2
:1006E000F4CF789484B5826084BD84B5816084BD84
:1006F00085B5826085BD85B5816085BD80916E00C0
:10070000816080936E0010928100809181008260F0
:10071000809381008091810081608093810080912D
:1007200080008160809380008091B100846080931C
:10073000B1008091B00081608093B00080917A0018
:10074000846080937A0080917A00826080937A003E
:1007500080917A00816080937A0080917A0080682D
:1007600080937A001092C100C0E8D1E0FE0124918C
:100770000CE611E0F80184918823C9F090E0880F1D
:10078000991FFC01EE58FF4FA591B491FC01E85967
:10079000FF4F459154919FB7F8943C91822F8095DB
:1007A00083238C93FA018081282B20839FBFE091C3
:1007B0003A01F0913B0182E08083E0913601F091B3
:1007C00037011082E0913801F09139018FEC80837C
:1007D00010924201E0913E01F0913F0186E080835A
:1007E000E0913C01F0913D01808180618083E09146
:1007F0003C01F0913D01808188608083E0913C0163
:10080000F0913D01808180688083E0913C01F0910E
:100810003D0180818F7D808388E191E00E94B40258
:1008200083EF90E00E94B40282EE90E00E94B40256
:100830008BEB90E00E94B4028CE790E00E94B4023F
:1008400097E0B92E24E9E22E21E0F22E30E0C32E0B
:1008500030E0D32E8AE291E00E948F01181619062B
:100860000CF04EC08AE291E00E946D01A82E8091AA
:1008700018018A2598E087FF3CC0880F8B2591508E
:10088000D1F7809318018091190190911A01A091DC
:100890001B01B0911C010196A11DB11D809319018E
:1008A00090931A01A0931B01B0931C018CE591E079
:1008B0000E94230280EE8A0D8F35E8F487E20E94C1
:1008C0001E028A2D0E941E0287E20E941E0287E5F8
:1008D00091E00E9423028A2D0E94C0028DE491E0E3
:1008E0000E942302809118010E94C0020E94AC0263
:1008F000B1CF880FC4CF8FE391E00E942302E7CFEE
:10090000F7018491FE019491F8012491222309F4C6
:10091000BBC0882359F0833009F49FC008F092C00F
:10092000813009F4A0C0823009F4A1C0E22FF0E0C8
:10093000EE0FFF1FE05AFE4FA591B4918C919823C2
:1009400031E020E009F430E0832F922F282F21702E
:10095000309101012317A9F03FB7F8944091260187
:100960005091270160912801709129013FBF409368
:100970001D0150931E0160931F017093200120936D
:1009800001013FB7F89440912601509127016091F1
:100990002801709129013FBF40901D0150901E0118
:1009A00060901F017090200144195509660977096C
:1009B0004333510561057105C8F1309100012317DA
:1009C000A9F120930001892B89F584EF91E00E9421
:1009D000B40283EE91E00E942302609119017091AC
:1009E0001A0180911B0190911C014AE00E945E0255
:1009F0000E94AC0288ED91E00E94230280911801D0
:100A00000E94C0020E94AC028DEB91E00E94B402F1
:100A100086EA91E00E94B402109218011092190126
:100A200010921A0110921B0110921C01C114D104E2
:100A300009F410CF0E949B01882309F40BCF0E9478
:100A4000000008CF8730B1F08830D1F0843009F051
:100A50006DCF809180008F7D03C0809180008F7763
:100A60008093800063CF84B58F7784BD5FCF84B5DA
:100A70008F7DFBCF8091B0008F778093B00056CFF1
:100A80008091B0008F7DF9CF90E080E05FCFEAE207
:100A9000F1E01382128288EE93E0A0E0B0E084835C
:100AA0009583A683B78386E091E09183808385EC6C
:100AB00090E09587848784EC90E09787868780EC28
:100AC00090E0918B808B81EC90E0938B828B82EC19
:100AD00090E0958B848B86EC90E0978B868B118EC3
:100AE000128E138E148E0895A1E21A2EAA1BBB1B20
:100AF000FD010DC0AA1FBB1FEE1FFF1FA217B307EA
:100B0000E407F50720F0A21BB30BE40BF50B661FFF
:100B1000771F881F991F1A9469F7609570958095C3
:100B200090959B01AC01BD01CF010895EE0FFF1F11
:100B30000590F491E02D0994F894FFCF0101000095
:100B40000000D10131015E013E028F016D01810182
:040B50000D0A00008A
:107E0000112484B714BE81FFF0D085E080938100F7
:107E100082E08093C00088E18093C10086E0809377
:107E2000C20080E18093C4008EE0C9D0259A86E02C
:107E300020E33CEF91E0309385002093840096BBD3
:107E4000B09BFECF1D9AA8958150A9F7CC24DD24C4
:107E500088248394B5E0AB2EA1E19A2EF3E0BF2EE7
:107E6000A2D0813461F49FD0082FAFD0023811F036
:107E7000013811F484E001C083E08DD089C08234E0
:107E800011F484E103C0853419F485E0A6D080C0E4
:107E9000853579F488D0E82EFF2485D0082F10E0AE
:107EA000102F00270E291F29000F111F8ED06801E7
:107EB0006FC0863521F484E090D080E0DECF843638
:107EC00009F040C070D06FD0082F6DD080E0C81688
:107ED00080E7D80618F4F601B7BEE895C0E0D1E017
:107EE00062D089930C17E1F7F0E0CF16F0E7DF06D8
:107EF00018F0F601B7BEE89568D007B600FCFDCFD4
:107F0000A601A0E0B1E02C9130E011968C91119780
:107F100090E0982F8827822B932B1296FA010C0160
:107F200087BEE89511244E5F5F4FF1E0A038BF0790
:107F300051F7F601A7BEE89507B600FCFDCF97BE46
:107F4000E89526C08437B1F42ED02DD0F82E2BD052
:107F50003CD0F601EF2C8F010F5F1F4F84911BD097
:107F6000EA94F801C1F70894C11CD11CFA94CF0C13
:107F7000D11C0EC0853739F428D08EE10CD085E9AC
:107F80000AD08FE07ACF813511F488E018D01DD067
:107F900080E101D065CF982F8091C00085FFFCCF94
:107FA0009093C60008958091C00087FFFCCF809118
:107FB000C00084FD01C0A8958091C6000895E0E648
:107FC000F0E098E1908380830895EDDF803219F02E
:107FD00088E0F5DFFFCF84E1DECF1F93182FE3DFCA
:107FE0001150E9F7F2DF1F91089580E0E8DFEE27F6
:047FF000FF270994CA
:027FFE00040479
:00000001FF
